:100000000C94CC030C94F4030C94F4030C94F403BC
:100010000C94F4030C94F4030C94F4030C94F40384
:100020000C94F4030C94F4030C949E0B0C940D0CA0
:100030000C94F4030C94F4030C94F4030C94F40364
:100040000C94F4030C94F4030C94F4030C94F40354
:100050000C94F4030C94F4030C94F4030C94FE0D30
:100060000C94F4030C94F4030C94F4030C94F40334
:100070000C94F4030C94F4030C94F4030C94F40324
:100080000C94630E0C94F4030C94F4030C94F4039A
:100090000C94F4030C94F4030C94F4030C94F40304
:1000A0000C94F4030C94F4030C94F4031818FFFF5D
:1000B00000000000003E5B4F5B3E3E6B4F6B3E1C02
:1000C0003E7C3E1C183C7E3C181C577D571C1C5E19
:1000D0007F5E1C00183C1800FFE7C3E7FF001824F0
:1000E0001800FFE7DBE7FF30483A060E262979299A
:1000F00026407F050507407F05253F5A3CE73C5ACF
:100100007F3E1C1C08081C1C3E7F14227F22145FAB
:100110005F005F5F06097F017F006689956A606006
:1001200060606094A2FFA29408047E040810207E00
:10013000201008082A1C08081C2A08081E10101085
:10014000100C1E0C1E0C30383E3830060E3E0E06CB
:10015000000000000000005F00000007000700141E
:100160007F147F14242A7F2A1223130864623649DD
:100170005620500008070300001C224100004122C5
:100180001C002A1C7F1C2A08083E080800807030CA
:100190000008080808080000606000201008040239
:1001A0003E5149453E00427F40007249494946213F
:1001B00041494D331814127F1027454545393C4AB3
:1001C00049493141211109073649494936464949CA
:1001D000291E000014000000403400000008142212
:1001E0004114141414140041221408020159090680
:1001F0003E415D594E7C1211127C7F494949363E81
:10020000414141227F4141413E7F494949417F0966
:100210000909013E414151737F0808087F00417F71
:1002200041002040413F017F081422417F4040406F
:10023000407F021C027F7F0408107F3E4141413E07
:100240007F090909063E4151215E7F091929462689
:100250004949493203017F01033F4040403F1F208D
:1002600040201F3F4038403F631408146303047864
:1002700004036159494D43007F4141410204081084
:1002800020004141417F04020102044040404040BF
:10029000000307080020545478407F28444438382D
:1002A00044444428384444287F385454541800089F
:1002B0007E090218A4A49C787F0804047800447D79
:1002C00040002040403D007F1028440000417F4016
:1002D000007C047804787C0804047838444444386A
:1002E000FC1824241818242418FC7C08040408484A
:1002F0005454542404043F44243C4040207C1C209B
:1003000040201C3C4030403C44281028444C9090F5
:10031000907C4464544C440008364100000077004F
:1003200000004136080002010204023C2623263C5C
:100330001EA1A161123A4040207A385454555921E7
:1003400055557941215454784121555478402054D1
:100350005579400C1E52721239555555593954541D
:10036000545939555454580000457C410002457D8C
:10037000420001457C40F0292429F0F0282528F08E
:100380007C545545002054547C547C0A097F4932E2
:10039000494949323248484832324A4848303A415D
:1003A00041217A3A42402078009DA0A07D39444402
:1003B00044393D4040403D3C24FF2424487E49438D
:1003C000662B2FFC2F2BFF0929F620C0887E0903FE
:1003D00020545479410000447D413048484A323825
:1003E0004040227A007A0A0A727D0D19317D262951
:1003F000292F28262929292630484D402038080849
:10040000080808080808382F10C8ACBA2F1028347C
:10041000FA00007B000008142A142222142A14086F
:100420009500220095AA005500AAAA55AA55AA002F
:100430000000FF00101010FF00141414FF00101033
:10044000FF00FF1010F010F0141414FC001414F747
:1004500000FF0000FF00FF1414F404FC1414171034
:100460001F10101F101F1414141F00101010F00084
:100470000000001F101010101F10101010F01000BE
:100480000000FF101010101010101010FF100000CE
:1004900000FF140000FF00FF00001F10170000FC09
:1004A00004F414141710171414F404F40000FF00DB
:1004B000F714141414141414F700F7141414171464
:1004C00010101F101F141414F4141010F010F0006A
:1004D000001F101F0000001F14000000FC1400008B
:1004E000F010F01010FF10FF141414FF141010106F
:1004F0001F00000000F010FFFFFFFFFFF0F0F0F022
:10050000F0FFFFFF0000000000FFFF0F0F0F0F0FB5
:1005100038444438447C2A2A3E147E0202060602ED
:100520007E027E0263554941633844443C04407E68
:10053000201E2006027E020299A5E7A5991C2A49E1
:100540002A1C4C7201724C304A4D4D30304878486C
:1005500030BC625A463D3E494949007E0101017E58
:100560002A2A2A2A2A44445F444440514A444040AB
:10057000444A51400000FF0103E080FF00000808EA
:100580006B6B083612362436060F090F060000186A
:10059000180000001010003040FF0101001F010191
:1005A0001E00191D1712003C3C3C3C0000000000DE
:1005B00000B00000A170E150964F26900F1D070C6F
:1005C000009669004AE44A004844400080681000F0
:1005D0000F99FB8F9DBDBBFB77D4D4DF1F1A1AFE8A
:1005E0007F5D5DFF805A0000A0A4AA0010BA34000D
:1005F000FF5953F3FF9B9B9EFFB9B996FF9595D189
:100600009FF4940FFC295F91FF1838F8FF9294FF34
:10061000FF95D5F7BFB5DDD7F18F81F1F788C8F722
:1006200079C6467909FD9B090196F800828182808E
:10063000507162007756560076763700A2B7730184
:1006400007720600782750007334740077517600E3
:100650007F55F700477110003247720073647300D2
:1006600015A2750061679400009F6060F4F2F6F2D5
:10067000F0F89C8E8783878E9CF8F00000FEFF03C5
:1006800003030303070EFCF80000FEFF030303034C
:1006900003070EFCF80000FFFF0000000000000050
:1006A000FFFF0000FEFF8383838383C7EE7C380057
:1006B00000F8FC0E07030303070EFCF800003F7F61
:1006C000E0C08080C0E07F3FFFFF01010101010128
:1006D00001FFFF0000FFFF0C0C0C0C1C3E77E3C178
:1006E00000007FFFC0C0C0C0C0E0703F1F00001FFF
:1006F0003F70E0C0C0C0E0703F1F00007FFFC1C17D
:10070000C1C1C1E3773E1C00001F3F70E0C0C0C004
:10071000E0703F1F000000000001FFFF010000002B
:100720008D14A1C881CFD9F102AF080B00020202DB
:10073000010009040000010202000005240010016C
:100740000524010101042402060524060001070511
:10075000810310004009040100020A00000007059F
:100760000202400000070583024000000403090460
:1007700012010002EF020140412336800001010214
:10078000030141726475696E6F204C4C4300414215
:10079000413131303600DD0F11241FBECFEFDAE0DA
:1007A000DEBFCDBF11E0A0E0B1E0E0EFF7E202C0B4
:1007B00005900D92A836B107D9F726E0A8E6B1E07A
:1007C00001C01D92A832B207E1F713E0CCECD3E0F0
:1007D00004C02197FE010E94F013CB3CD107C9F75A
:1007E0000E943D100C94F6130C94000080917C0143
:1007F0000895EDEFF1E030EB20E146E05C983EBD7E
:100800004A95F1F72EBD20E8239507C04491408119
:100810005C9A4EBD8111412D419344912A95B1F7C7
:100820003395383B49F70DB408952F923F924F927C
:100830005F926F927F928F929F92AF92BF92CF9270
:10084000DF92EF92FF920F931F93CF93DF9300D02D
:1008500000D000D0CDB7DEB730E0F901E80FF91FC6
:10086000F7FD97C0803891050CF093C0802E912C35
:10087000F401E60FF71FF7FD8CC0603471050CF032
:1008800088C0E62FE7707E2EE3E095948794EA9582
:10089000E1F7DA01F3E075956795FA95E1F7062E31
:1008A000000C770BAB015695542F4427579547956D
:1008B000480F591F10E000E01C821B82FA01E35030
:1008C000FE4FFA83E983FA01E358FD4F5F01CB80C5
:1008D000DC808C149D0409F45CC07601E60EF71EE2
:1008E00048E0E416F1040CF054C05FEFE516F5069D
:1008F0000CF441C049805A80400E511E1501200E53
:10090000311E50E040E042175307ACF5FA01E80F02
:10091000F91FE038F1057CF5F7FD2AC0FD01E40F71
:10092000F51FE491F0E06F01072C02C0CC0CDD1C38
:100930000A94E2F7DE82CD82EFEFEE16FE0631F189
:100940006201C40ED51EF6016080FD816F2AF6019A
:100950006082772069F0F7E0EF16F10449F0610159
:10096000C40ED51EF6016080FE816F2AF6016082FA
:100970004F5F5F4FC8CF4B815C814F5F5F4F5C83A0
:100980004B83A20FB31F00581F4FA1CF7110E7CFA9
:10099000EFCF26960FB6F894DEBF0FBECDBFDF9126
:1009A000CF911F910F91FF90EF90DF90CF90BF906C
:1009B000AF909F908F907F906F905F904F903F90FF
:1009C0002F900895FC0180919C01882311F13FB77D
:1009D000F89482E08093E9002091F200822F90E069
:1009E0001816190614F481E090E0882339F028984D
:1009F00044E640939B014091F1004083222339F06B
:100A00002091F200211103C02BE62093E8003FBFA4
:100A100008958FEF9FEF08952FB7F89483E08093A8
:100A2000E9009091E800892F807295FF04C09091B1
:100A3000F20080E4891B2FBF0895809193018111FA
:100A40000DC082E080938F0184E08093900110922A
:100A500092011092910181E0809393018FE891E0DF
:100A60000895CF93DF931F92CDB7DEB76983DC0182
:100A7000ED91FC910280F381E02D41E050E0BE0158
:100A80006F5F7F4F09950F90DF91CF91089583E0BD
:100A90008093E9008091F200882319F08AE3809323
:100AA000E80008950E940C0590E00895CF93DF932D
:100AB0001F92CDB7DEB7FC018485958597FD08C0F0
:100AC0002FEF3FEF358724870F90DF91CF91089567
:100AD000CE0101960E94E204019719F4898190E009
:100AE000F3CF8FEF9FEFF0CF0F931F93CF93DF9351
:100AF0001F92CDB7DEB78C01FC018485958597FFE9
:100B00000BC0CE0101960E94E204019771F4898125
:100B100090E0F80195878487F801848595850F908A
:100B2000DF91CF911F910F9108958FEF9FEFF1CF3C
:100B3000FC018485958597FD0BC09FB7F89482E0F2
:100B40008093E9008091F2009FBF90E001960895A4
:100B50009FB7F89482E08093E9008091F2009FBFF4
:100B600090E008954091890150918A012091870178
:100B70003091880142175307B4F49091E8009570C2
:100B8000E1F39091E80092FD19C08093F10080910B
:100B9000890190918A0101968F739927892B19F405
:100BA0008EEF8093E8008091890190918A010196EF
:100BB00090938A018093890181E0089580E00895EF
:100BC000DF92EF92FF920F931F93CF93DF93D82E74
:100BD0008A01EB017B01E40EF51ECE15DF0559F00D
:100BE000D7FE12C0FE0184910E94B20521968111A8
:100BF000F4CF0FEF1FEFC801DF91CF911F910F913D
:100C0000FF90EF90DF9008958881EECF0F931F93B0
:100C1000CF93DF931F92CDB7DEB782E0898342E4A2
:100C200050E06AE277E080E80E94E0050E941D053E
:100C3000DC0112960D911C910115110589F0D80166
:100C4000ED91FC910280F381E02DBE016F5F7F4F3B
:100C5000C801099597FD04C0F80100851185ECCF06
:100C600089810F90DF91CF911F910F91089561506D
:100C700030F02091F100FC0120830196F8CF2898F4
:100C800084E680939B010895AF92BF92CF92DF924A
:100C9000EF92FF920F931F93CF93DF936C017B0131
:100CA0008B01040F151FEB015E01AE18BF08C017C2
:100CB000D10759F06991D601ED91FC910190F08135
:100CC000E02DC6010995892B79F7C501DF91CF91F8
:100CD0001F910F91FF90EF90DF90CF90BF90AF905A
:100CE0000895FC010E940807319728F068517C4F55
:100CF0008F4F9F4FF9CFAB01FC010E94080764178B
:100D000075078E079F07C8F308958F929F92AF9241
:100D1000BF92CF92DF92EF92FF920F931F93CF93E8
:100D2000DF936C017B018A0180910B01882309F418
:100D30005AC080919C01882309F455C080918E018E
:100D400080FF05C08091E00082608093E000E801B0
:100D5000B12C8AEFA82E93E0892E2AE3922E2097B9
:100D600011F4BB20C9F10E940C05811108C0AA949E
:100D7000AA20C9F181E090E00E947106F0CF8C17A3
:100D80001D0611F00CF08C2F9FB7F8948092E900AB
:100D90002091E80025FD02C09FBFE1CF282F30E061
:100DA000C21BD30BF701815020F041914093F10019
:100DB000FACFE20EF31EBB2021F09092E800B12C96
:100DC000EBCF8091E80085FDE7CF9092E800BB244F
:100DD000B394209709F3F3CF5D9884E680938D0157
:100DE000101611063CF081E090E0F60193838283B7
:100DF00010E000E0C801DF91CF911F910F91FF90AB
:100E0000EF90DF90CF90BF90AF909F908F9008951C
:100E1000A8E7B1E02FB7F8947D918D919C9166B5CC
:100E20002FBFA89B05C06F3F18F47F5F8F4F9F4F68
:100E300022E0660F771F881F991F2A95D1F7089522
:100E40006F927F928F929F92AF92BF92CF92DF92DA
:100E5000EF92FF920F931F93CF93DF934C017B018F
:100E6000C22F102F98E0A92EB12C642E66946694A0
:100E70006694712CCA0187709927892B79F5D40162
:100E800017962D913C91C7019927B9010E94C8136B
:100E9000269DF001279DF00D369DF00D11248E0F3B
:100EA0009F1FD4011596ED91FC91E80FF91F208149
:100EB000111112C0C095C223C083DF91CF911F9141
:100EC0000F91FF90EF90DF90CF90BF90AF909F90E9
:100ED0008F907F906F900895C22BEECFD0E0477037
:100EE000C42ED12C83E0660C771C8A95E1F79E0115
:100EF00001C0220F4A95EAF7012FA301B701C401EF
:100F00000E942007A301485F5F4FC5018C199D090E
:100F100002C0D595C7958A95E2F7A7CF5F926F92E9
:100F20007F928F929F92AF92BF92CF92DF92EF9279
:100F3000FF920F931F93CF93DF93EC016A30F1F48C
:100F40008D859E859C878B878B892F853889820F1D
:100F5000932F911D988B8F8781E090E0DF91CF9147
:100F60001F910F91FF90EF90DF90CF90BF90AF90C7
:100F70009F908F907F906F905F900895AB84BC841A
:100F8000693031F429E0A20EB11CBC86AB86E4CFF7
:100F90003DEFA3163FEFB3060CF459C08F8198853F
:100FA000A816B9060CF053C0CF84D8888DEFC816A8
:100FB0008FEFD8060CF44BC089859A85C816D906E0
:100FC0000CF045C0603208F46FE780EE860F9FE9B1
:100FD000960F9A3118F49FEFC91AD90A8C3011F084
:100FE0008B3119F42FEFC21AD20A869534E0839F11
:100FF000C00111249C0120553A4F7901912C812C7C
:101000006170562EF701E80DF91D1491511029C099
:101010001F703501680C791C8C81882351F001E028
:101020008989811100E02FE0A601B301CE010E9461
:1010300020070989212FA601B301CE010E942007B4
:101040003FEF831A930A84E088169104D9F68A89BF
:1010500090E004962B853C85820F931F9C878B879D
:101060007BCF1295D5CF20916801E0916B01F09173
:101070006C01CF01029690936C0180936B01222347
:1010800019F08591949108958081918108952D9A08
:1010900008950C9471060E945B0E08955C988EBDB5
:1010A00000000DB407FEFDCF8EB55C9A08952F9217
:1010B0003F924F925F926F927F928F929F92AF92E8
:1010C000BF92CF92DF92EF92FF920F931F93CF9335
:1010D000DF9300D000D01F92CDB7DEB79C838B8307
:1010E0006A3059F5DC0155968C91B8E08B9F9001E0
:1010F0001124EB81FC8181899289820F931F928B4D
:10110000818B108A178681E090E00F900F900F90EE
:101110000F900F90DF91CF911F910F91FF90EF9063
:10112000DF90CF90BF90AF909F908F907F906F9007
:101130005F904F903F902F9008956D3021F3AB81D9
:10114000BC811F968D919C915097803891050CF031
:1011500087C05196CD90DC90B0E4CB16D1040CF052
:101160007FC0EB81FC819588E5E09C019E9E200D6F
:10117000311D1124121613060CF072C0E92CF12C4B
:101180009701B3E0220F331FBA95E1F72C0D3D1DF7
:10119000121613060CF064C0AB81BC8154965C90AF
:1011A000549753964C906E9FF0011124E055FF4FD9
:1011B00070E02491753009F420E05601A8E06A2E11
:1011C000222E312C642D20FF652D611103C0541493
:1011D00009F437C0AC0161706A834983242F281B4E
:1011E000291578F510E000E0091540F54038510563
:1011F00010F598012A0D3B1D20343105E0F460E123
:10120000762E898061E021FD64E020FD660F22FDDD
:101210006295287F729ED0011124A80D6D83A35082
:10122000BE4F2C913A81862E822A311103C08D80C7
:10123000809482228C920F5F1F4FD6CF4F5F5F4FFB
:10124000CCCF9101359527956A94AE0CBF1C6110E7
:10125000B7CF7F5F31968E0D9F1D763009F0A9CFF5
:10126000AB81BC8155962C915597422F50E01F962B
:101270008D919C91B6E02B9F800D911D1124EB81E7
:10128000FC81908B87872689222309F43CCF6AEF63
:1012900064039001659F300D112420583F4F28179B
:1012A00039070CF030CFCF010190F081E02D019093
:1012B000F081E02D6AE0099526CF0895089590E029
:1012C00080E008950F93FC01A681B781AA0FBB1F90
:1012D000A05FBE4F4D915C91648175810085228530
:1012E000828193810E9415040F910895CF93DF931B
:1012F000EC018C858823D1F01C861F821E8288E039
:1013000090E09987888782E090E09B878A878B8B23
:1013100088E08C8B8BE790E09B838A83988B8F8708
:101320008EE190E09D838C839A8B898B0E944B0881
:1013300083FF07C08C819D8101969D838C839A8B4E
:10134000898B0E944B0882FF07C08C819D81019789
:101350009D838C839A8B898BCE01DF91CF910C94E6
:101360006209CF93DF93EC018C858823D1F01C8632
:101370001F821E8288E090E09987888782E090E053
:101380009B878A878B8B88E08C8B8EE190E09D8396
:101390008C839A8B898B85E090E09B838A83988BE2
:1013A0008F870E944B0887FF07C08C819D81019722
:1013B0009D838C839A8B898B0E944B0884FF07C086
:1013C0008C819D8101969D838C839A8B898BCE0124
:1013D000DF91CF910C946209CF92DF92EF92FF924E
:1013E0000F931F93CF93DF93CDB7DEB72C970FB634
:1013F000F894DEBF0FBECDBF26E0FB013F96DE01B5
:10140000119601900D922A95E1F726E0FE013196A2
:10141000DE01179601900D922A95E1F7DC011F96E7
:101420000D911C9150975196CD90DC905297549607
:101430003C91EF80F884A985BA854B852C85FC0109
:101440006389600F712F711DE616F7069CF44E0D2F
:101450005F2D511D041715076CF4C601830F911DF4
:10146000A817B9073CF42A0F3B2F311D81E0C216A3
:10147000D3060CF080E02C960FB6F894DEBF0FBEBA
:10148000CDBFDF91CF911F910F91FF90EF90DF9033
:10149000CF9008958F929F92AF92BF920F931F9318
:1014A000CF93DF93CDB7DEB7A1970FB6F894DEBF29
:1014B0000FBECDBF19A2423008F44AE08E010F5D85
:1014C0001F4F842E912CB12CA12CA50194010E94B8
:1014D0009713E62FB901CA01EA3044F5E05DD8015F
:1014E000EE938D01232B242B252B79F790E080E0C0
:1014F000109769F0FD0101900020E9F73197AF01E5
:101500004A1B5B0BBD018DEF95E00E944406A1963E
:101510000FB6F894DEBF0FBECDBFDF91CF911F9104
:101520000F91BF90AF909F908F900895E95CD7CFB7
:1015300050E040E067E671E081E196E00C944406FB
:10154000CF92DF92EF92FF92CF93DF936C01990FCE
:10155000EE08FF08F7FE19C06DE28DEF95E00E94DE
:101560008E07EC0166277727CB016C197D098E0960
:101570009F094AE00E944A0A8C0F9D1FDF91CF917C
:10158000FF90EF90DF90CF9008954AE0C701B60139
:10159000DF91CF91FF90EF90DF90CF900C944A0AAB
:1015A0000F931F93CF93DF93EC018C85882321F158
:1015B0001C8681E090E09F838E8328E030E03987AD
:1015C000288722E030E03B872A872B8B28E02C8B72
:1015D00022E330E03B832A83388B2F872EE130E0F3
:1015E0003D832C833A8B298B9E8B8D8B988F8F8B91
:1015F0001A8E198E1C8E1B8E8C819D8118161906D1
:101600000CF493C081E090E0988F8F8B8AE090E09B
:1016100090930B0680930A06909309068093080620
:1016200085E090E090930D0680930C06898D9A8D4D
:101630000E94A00A0D891E898A819B81080F191FAB
:101640001B830A83188B0F878F89988D2C813D818E
:10165000820F931F9D838C839A8B898B609181016C
:1016600070918201CE010E94EC09882321F081E073
:1016700090E09E8B8D8B6091830170918401CE01EF
:101680000E94EC09882321F08FEF9FEF9E8B8D8BBA
:1016900010161106ACF08B8D9C8D22E330E03B835D
:1016A0002A83388B2F872EE130E03D832C833A8BC1
:1016B000298B21E030E03E8B2D8B01969C8F8B8F08
:1016C0008A819B8180389105ACF082E390E09B8316
:1016D0008A83988B8F878EE190E09D838C839A8B91
:1016E000898B8FEF9FEF9E8B8D8B898D9A8D0196C5
:1016F0009A8F898F88E790E090930B0680930A0673
:10170000909309068093080685E090E090930D067B
:1017100080930C068B8D9C8D0E94A00ACE01DF91D8
:10172000CF911F910F910C946209803491050CF4B4
:101730006DCF8FEF9FEF68CF0C944F131F920F92D6
:101740000FB60F9211248F939F938091E100909197
:10175000E100937F9093E10083FF0FC01092E900B6
:1017600091E09093EB001092EC0092E39093ED00E7
:1017700010929C0198E09093F00082FF22C093E0C9
:101780009093E9009091F200992319F09AE39093D5
:10179000E80090918D01992341F090918D01915035
:1017A00090938D01911101C05D9A90919B019923B5
:1017B00041F090919B01915090939B01911101C038
:1017C000289A84FF18C08091E2008E7E8160809309
:1017D000E2008091E1008F7E8093E10080918E0194
:1017E0008E7E806180938E019F918F910F900FBEAE
:1017F0000F901F90189580FFF7CF8091E2008E7EAA
:1018000080618093E2008091E1008E7E8093E10010
:1018100080918E018E7E8160E5CF1F920F920FB670
:101820000F921124CF92DF92EF92FF920F931F93AA
:101830002F933F934F935F936F937F938F939F93D8
:10184000AF93BF93EF93FF93CF93DF93CDB7DEB703
:101850006C97DEBFCDBF1092E9008091E80083FF56
:1018600025C068E0CE0145960E94370682EF80933E
:10187000E8008D8987FF39C09091E80090FFFCCF88
:10188000982F907609F034C19E894F89588D2F8901
:10189000F88C911131C0803861F580918C01809372
:1018A000F1001092F1008EEF8093E8006C960FB675
:1018B000F894DEBF0FBECDBFDF91CF91FF91EF91C6
:1018C000BF91AF919F918F917F916F915F914F9158
:1018D0003F912F911F910F91FF90EF90DF90CF904C
:1018E0000F900FBE0F901F9018959EEF9093E800F9
:1018F000C7CF1092F100D5CF913059F48111D3CFD9
:101900004130510581F680918C018D7F80938C014F
:10191000CACF933049F48111C6CF4130510519F631
:1019200080918C018260F2CF953041F48091E80083
:1019300080FFFCCF20682093E300B5CF963009F0FC
:10194000A9C00B8D1C8D22E01092E90010928A0133
:1019500010928901F2122EC0109288011092870114
:101960000E9406061F8299E09983FA8291E09E8385
:1019700090EA98879AEF99872091890130918A019E
:10198000275F3F4F3C832B838D831092E900109299
:101990008A0110928901109388010093870149E020
:1019A00050E0BE016F5F7F4F80E00E94E0050E9423
:1019B000060679CF10938801009387010E941D05C8
:1019C000DC0112960D911C910115110509F410C14D
:1019D000D801ED91FC910480F581E02DBE016B5E94
:1019E0007F4FC8010995009709F0FDC0F8010085F7
:1019F0001185EACFF3E0FF120EC08F89882309F426
:101A000040C0823061F440E867E08EE897E00E94D1
:101A1000650F811148CF81E28093EB0047CF813081
:101A200029F440E86BE082E897E0F1CF833099F742
:101A30000E941D05DC011296ED90FC908E010F5F57
:101A40001F4F6801E114F10479F0D701ED91FC9189
:101A50000680F781E02DB801C7010995080F111D17
:101A6000F701E084F184EECFD8011C92F6010190D9
:101A70000020E9F73197BF016C197D0940E0C601EC
:101A8000C6CF6CE677E0FB01449150E080E80E940D
:101A9000E00509CF973009F4BECF983021F481E0FA
:101AA0008093F10000CF993009F0FDCE837009F0EA
:101AB000B2CFEFE2F1E081E031E096E32191222321
:101AC00071F08093E9003093EB00DF0111972C91C6
:101AD0002093EC009093ED008F5F873079F78EE7CD
:101AE0008093EA001092EA008F8980939C01DBCEFC
:101AF0008B8D9C8D1092E90010928A0110928901C1
:101B00009093880180938701898D811151C08E89BE
:101B10009D89913A49F4813209F07DCF47E050E048
:101B200064E071E080E0B3CF913209F074CF83328A
:101B300069F48F89988DB0E0A0E0809300019093C4
:101B40000101A0930201B0930301ADCE803269F48C
:101B50008091E80082FFFCCF67E084E091E00E9482
:101B600037068BEF8093E8009ECE823209F09BCE41
:101B70008F8980930B018091040190910501A091C0
:101B80000601B0910701803B9440A105B10569F4BD
:101B900080910B0180FD09C088E780938B018091C3
:101BA00064008F7D809364007ECE10928B017BCE8B
:101BB0000E941D05DC0112960D911C910115110565
:101BC00009F429CFD801ED91FC910190F081E02D2D
:101BD000BE016B5E7F4FC8010995811164CEF8018B
:101BE00000851185EBCF181619060CF45CCE13CFC7
:101BF000F1E0FF12FFCE60E777E045CF0F930FB71C
:101C00000F931F9211248F939F93EF93FF93EDE710
:101C1000F1E08091770191E08D5F8D3710F08D5765
:101C20009395809377018081890F80839181911DA5
:101C300091830281011D02838381811D8383092792
:101C40000F70092702950093760135D0811100931A
:101C50007401803989F400917501901B963070F001
:101C600087E7809300088093010888E198E08093DB
:101C7000600090936000FFCF9093750180918B017D
:101C8000815018F080938B0159F3E8E7F1E08081EF
:101C9000918101968083918382819381811D911D21
:101CA00082839383FF91EF919F918F911F900F916A
:101CB0000FBF0F9118958FB18095807F669B8860CC
:101CC0001C9B846008951F920F920FB60F921124EF
:101CD000CF92DF92EF92FF922F933F934F935F93B8
:101CE0006F937F938F939F93AF93BF93CF93DF9324
:101CF000EF93FF938091700190917101A091720117
:101D0000B0917301892B8A2B8B2B09F446C08091EB
:101D10006F0181110BC088B190E4892788B9809147
:101D20006E01882319F08BB180588BB980917001B6
:101D300090917101A0917201B0917301181619066A
:101D40001A061B069CF48091700190917101A0917C
:101D50007201B09173010197A109B10980937001DB
:101D600090937101A0937201B0937301FF91EF9171
:101D7000DF91CF91BF91AF919F918F917F916F91A3
:101D80005F914F913F912F91FF90EF90DF90CF9017
:101D90000F900FBE0F901F9018950E943308811569
:101DA00020E8920761F4809171008D7F809371002B
:101DB0001092910046985F9810926D01D7CF21E064
:101DC00020936D01813020E8920731F410926C016C
:101DD00010926B010E94330897FD05C020916A01A3
:101DE000222309F454C020916901211150C021E03F
:101DF00020936E01EC01DF77209709F04BC081E062
:101E000080936F0146983FE9C32E3FE0D32EE12C2B
:101E1000F12CCAEFD0E0E091FB01F091FC010995B3
:101E2000811103C081E080936F0180916E0188234E
:101E300029F080916F01882309F43FC05F980E94C8
:101E400033080097F1F19C01DE010E94B913DC0117
:101E5000CB0129E0B595A795979587952A95D1F758
:101E6000109290002AE020939100D0929900C092A5
:101E700098008093700190937101A0937201B093C8
:101E80007301809171008260809371006FCF109216
:101E90006E01B0CF9E0150E040E060E472E48FE05C
:101EA00090E00E94651369017A0181E0C81AD108A7
:101EB000E108F10810926F01AECF4699BFCF5F9A4B
:101EC000BECF8FEF9FEFDC01CBCFEF92FF920F934E
:101ED0001F93CF93DF93F82E192FE62E042F81E066
:101EE000860F880F0E94B20583E00E94B205CF2DB5
:101EF000D12FEC0EFD2EF11CCE15DF05B9F007FF3A
:101F000013C0FE0184910E94B205182F80E00E9448
:101F1000B205812321968111EFCFDF91CF911F91DF
:101F20000F91FF90EF9008958881EDCF81E0F5CF7C
:101F30000F931F93CF93DF938C0181E090E00E9479
:101F40009C0B80FF32C08AE090E00E949C0B9FEFC8
:101F5000980F9E3F50F522E330E0D80150963C9315
:101F60002E931F9728E330E052963C932E9351977F
:101F7000CBE0D0E0D801ED91FC910190F081E02D13
:101F8000682FC8010995CE010E949C0B2196C13192
:101F9000D10581F780E00E94F90388EE93E0DF919C
:101FA000CF911F910F910C944908DF91CF911F9110
:101FB0000F91089504970C94980FEDE9F1E01382C6
:101FC000128288EE93E0A0E0B0E084839583A6833C
:101FD000B78389E391E0918380838FEF9FEF9587AB
:101FE0008487E1E1F6E0138212821186128680E195
:101FF000838710861782158687E591E09183808319
:1020000085E691E095838483108A1786128A118A67
:1020100081E0838B148A858B168AEDEFF5E01382BD
:1020200012822BE431E0318320832DEF31E03683BF
:10203000258320E830E03087278320E430E03287B2
:10204000218795E0938B828B16861586108A1786DA
:1020500014861386818B148286EF93E09093FC01A3
:102060008093FB0180E090E89093FA018093F9015E
:1020700046983E9A5F98579A0895CDB7DEB7C754F1
:10208000D109DEBFCDBF789483E084BD83E085BDF8
:1020900081E080936E00E1E8F0E083E08083E0E897
:1020A00081E08083E1E983E08083E0E981E080836F
:1020B000E1EC87E08083E3EC81E08083E0EC82E088
:1020C0008083E2EC81E08083EAE787E080838068B8
:1020D000808310929C0110928C0110928E0180914D
:1020E000D70081608093D70080EA8093D80089B5BB
:1020F000806189BD89B5826089BD09B400FEFDCFCC
:1021000081E090E00E9471068091D8008F7C806110
:102110008093D8008091E000807F8093E0008091E0
:10212000E1008E7E8093E1008DE08093E200559A7D
:10213000209A81EC80937C0081E785B987E684B999
:1021400085E38BB98FE38AB9769A6E9880EF81BB6D
:1021500010BA80E58CBD81E08DBD85E090E00E94E5
:102160004908599902C0599AF8CF5C98E0E2F7E023
:102170009AE085918EBD00000DB407FEFDCF8EB5AF
:102180009A95B9F75C9A81E88093640081E0809326
:1021900065000E94F9030E944B0887FF0BC085EA87
:1021A0000E944E082E9858982D9881E083BF8895FC
:1021B00013BEFCCF0E944B0882FF48C02D980E949E
:1021C0004B0884788438E1F40E94470888EC90E05A
:1021D0000E944908589882E090E00E944F138F3F78
:1021E00029F06FEF82E090E00E94571384EF91E0B6
:1021F0000E944908589A0E944B0884788438D9F381
:102200000E944B0884718431E1F40E94470888ECF5
:1022100090E00E9449082E9882E090E00E944F13BF
:10222000882329F060E082E090E00E94571384EF59
:1022300091E00E9449082E9A0E944B0884718431D3
:10224000D9F388EC90E00E944908B4CF0E94470877
:1022500082E090E00E949C0B882309F403C13E9A1F
:10226000579A81E080937C0181E090E00E949C0B72
:10227000182F147081FF0EC011112E98F0EFEF2E61
:10228000FF24FA940E944B0886FFF1C02E9A589AB8
:102290000E94470882E390E00E9449080E944B0890
:1022A0008111F8CF82E380931C06809164008E7FB9
:1022B0008093640080917A00806480937A0080919A
:1022C0007A0086FDFCCF00917800109179000E9481
:1022D0000807AB01BC01C801B0E0A0E0DC01992710
:1022E00088278C019D01040F151F261F371FC90168
:1022F000B80120916400216020936400611571058C
:102300008105910511F00E94461380EC0E944E0851
:1023100080EA0E944E089CE2C92E91E0D92EDCAAE8
:10232000CBAAFF24F394FFAE1EAA1DAA18AE1FAAC3
:1023300001E010E022961FAF0EAF22971AAE19AE41
:102340001EAE1DAE1CAE1BAE24961FAE1EAE249755
:1023500026961FAE1EAE269727961FAE2797289665
:102360001FAE28975E0123E3A20EB11CC5010E9497
:1023700062098AE191E09CAB8BAB0E94980AB09213
:102380008201A0928101DF8ECE8EFAA619A218A238
:102390001BA21AA21CA70BA71DA21CA219A618A655
:1023A0001FA21EA21EA61DA618AA1FA619AA1AAA17
:1023B0005E013EE1A30EB11CC5010E94620980E2EC
:1023C00091E09F8F8E8F0E94980AB0928401A09214
:1023D0008301DA82C982FD861C821B821E821D82D5
:1023E0001F870E8718861F821C861B861A861986F1
:1023F000198A188A1B8A1A8A1C8A1D8A8E010F5F05
:102400001F4FC8010E94620986E291E09A83898386
:102410000E94980A10938601009385019924939451
:102420002DEFE22E21E0F22E37E8C32E31E0D32E3D
:1024300000E010E08824839420917D0180911D06A6
:10244000922F981B892F90911E06992309F441C061
:1024500080931F0610921E060115110569F30E9454
:102460000000EACF10927C013E985798FDCE1123D0
:1024700031F004E0E016F10411F42E9A589881E04E
:102480000E94F90300E128E540E756E0B70184E146
:1024900090E00E94150480E00E94F9038FE090E034
:1024A0000E9449082FEFE21AF20A39E1E316F1041B
:1024B00009F0E8CE112311F0589A2D9880E991E0A7
:1024C0000E9449080E94470881E196E00E94980F07
:1024D000E1CE30911C06831740F48F5F831708F01C
:1024E000BBCF93BE889513BEB7CF80921E062093B4
:1024F0001D0620911806309119062F5F3F4F30932B
:10250000190620931806F70191119FEF8FEF919311
:102510009193919391938150D0F71092230610924A
:102520002206109221061092200681E8A82E81E052
:10253000B82ED5018D919D915D01DC01ED91FC914D
:102540000190F081E02D0995CA14DB0491F780E039
:102550000E94F90381CF8F929F92AF92BF92CF9248
:10256000DF92EF92FF92CF93DF93EC016881798144
:102570008A819B81611571058105910521F464E2D1
:1025800079ED8BE597E02DE133EF41E050E00E94DB
:10259000651349015A019B01AC01A7EAB1E40E940D
:1025A00084136B017C01ACEEB4EFA50194010E9491
:1025B0009213C60ED71EE81EF91EF7FE06C081E074
:1025C000C81AD108E10880E8F80AC882D982EA82EC
:1025D000FB82C701B6019F77DF91CF91FF90EF900B
:1025E000DF90CF90BF90AF909F908F9008958F9283
:1025F0009F92AF92BF92CF92DF92EF92FF92609143
:102600000C0170910D0180910E0190910F016115E7
:1026100071058105910521F464E279ED8BE597E080
:102620002DE133EF41E050E00E94651349015A016A
:102630009B01AC01A7EAB1E40E9484136B017C0109
:10264000ACEEB4EFA50194010E949213C60ED71E02
:10265000E81EF91EF7FE06C081E0C81AD108E1089D
:1026600080E8F80AC0920C01D0920D01E0920E01B0
:10267000F0920F01C701B6019F77FF90EF90DF90B6
:10268000CF90BF90AF909F908F90089560930C0172
:1026900070930D0180930E0190930F010895F999A5
:1026A000FECF92BD81BDF89A992780B50895262F57
:1026B000F999FECF1FBA92BD81BD20BD0FB6F89427
:1026C000FA9AF99A0FBE01960895052E97FB1EF40B
:1026D00000940E947C1357FD07D00E94971307FCBB
:1026E00003D04EF40C947C13509540953095219571
:1026F0003F4F4F4F5F4F089590958095709561952E
:102700007F4F8F4F9F4F08950E94B913A59F900D43
:10271000B49F900DA49F800D911D11240895B7FFC3
:102720000C9484130E948413821B930B0895A1E2DE
:102730001A2EAA1BBB1BFD010DC0AA1FBB1FEE1F3B
:10274000FF1FA217B307E407F50720F0A21BB30B86
:10275000E40BF50B661F771F881F991F1A9469F702
:1027600060957095809590959B01AC01BD01CF015E
:102770000895A29FB001B39FC001A39F700D811D5A
:102780001124911DB29F700D811D1124911D08957A
:1027900097FB072E16F4009407D077FD09D00E940E
:1027A000DC1307FC05D03EF4909581959F4F08956A
:1027B000709561957F4F0895AA1BBB1B51E107C01F
:1027C000AA1FBB1FA617B70710F0A61BB70B881FC1
:1027D000991F5A95A9F780959095BC01CD01089550
:1027E000EE0FFF1F0590F491E02D0994F894FFCFB0
:1027F000FFFFFFFF00E100000000000001000000FB
:10280000AE00AC00AC0000000000B1090000000008
:10281000760900000000D00A000000005E0900C137
:102820008081000000000000003105850652054748
:1028300005980556057405000000008E0744065FE4
:10284000095E0900000000570844065F095E099808
:082850000FFCFF0000DA0F008D
:1074000080E189BD82E189BD09B400FEFDCF089508
:10741000D2D569F08091E9008F931092E900A4D44D
:1074200083FF01C026D58F9187708093E90008956E
:107430008EEF0090E10008220092E1000895F20131
:10744000F999FECFF2BDE1BD0895F9DFF89A80B554
:1074500008C0F5DF1FBA80BD0FB6F894FA9AF99A02
:107460000FBE31962F010895E0E0F0E085919491F0
:10747000019608958AE28BB98BEA34D01092890084
:107480008AEF8093880082E080936F0083E080938E
:107490008100E7E5F7E785913AD0E336E1F781E04F
:1074A0008093D7008AE482BF1092D8001092E20045
:1074B0001092DA001092E10080E808D019BC1EBAE0
:1074C0001092E00067D489E058D481E98093D80015
:1074D0000895A3E6B1E090E81AD08D939A95E1F76C
:1074E000089586E008D010C083E005D08F2F0FD01C
:1074F0008E2F0DD080E05B9A5A9809C005D085E0A8
:10750000FADF05D080FDFDCF5A9A5B9808958EBDB5
:107510008DB587FFFDCF8EB508958FE08221E9F705
:10752000F3DFE3E6F6E090EB5C98892FF0DF80E193
:10753000EEDF5C9A8191EBDF83E68E278F77D1F7C0
:107540009395983B89F70895E3E6F1E097FC38C0FE
:1075500094FC4FC092FE08958684882011F49924EB
:1075600059C0F894C089D78520E030E080E090E4ED
:10757000AFEFBFEF119688199040E0F72D01BD4F96
:107580008D0127FD13C0E0E0F8E011928EE78193B2
:1075900092E4E11791939AE508F092E4E334C9F795
:1075A00081931082BDDFFE0121969EDF92DFF901FB
:1075B00005D520583F4F040D151D8A9411F728C298
:1075C0008301282D60906C0170906B0141D019F4FB
:1075D0008823C1F70895380188243AD0B9F58091FD
:1075E0006A01821709F4830160906E0170906D0149
:1075F000F4CF60906E0170906D012AD059F4882309
:10760000C1F708959FEF95FC03C096FE089591E0A1
:1076100097FB890E662477248301222719D0B1F4C1
:107620008823A1F380916A0136F0881650F48217FE
:1076300030F0213003C0881520F4281710F483019E
:10764000282F60906E0170906D01E8CF3801822E76
:10765000F3014ADF3EDFC3E6D1E0E0E5F7E709905A
:107660008591081621F4E735D1F7088080104CCFBA
:10767000C9E031DFCA95E9F7D0E195FC1EC097FC5F
:1076800053C094FC35C0C3E6D2E0E3E6F6E098E0F0
:1076900088E78E0F00840192E817E1F7884F099080
:1076A0000192E817E1F7C858DF4F9A9589F735DF5F
:1076B000C85FD340C33E49F749C0C3E6D6E0EBE517
:1076C000FAE098E08E2F885702900086E817E1F7DD
:1076D00038960A900292E817E1F73897C857D040D9
:1076E0009A9581F71ADFC850DC4FC33E41F72EC090
:1076F000A3EEB6E0E3E6F6E09AE0C6E00D90808106
:107700008025807F802582958193A336B90709F46F
:10771000B2E0E336F90709F4F2E0E336FC0771F76B
:10772000FCDEDA9529F712C0A3EEB9E0E3E6FAE051
:1077300092E00E90829180258F70802582958083C3
:10774000E336F907B1F7E9DEDA9571F7882708958E
:1077500041524455424F59D5F08D14A1C881CFD91B
:10776000F1AF020000FFFFCFCFFFFFFFFFCFCFFF42
:10777000FF0000FE067E7E06FE46565616FE0656A4
:10778000461EFE3F61E9E3FFE3EBE3FFE3EBE3FFCC
:04779000E16B3F006A
:10779400120110010200000841233600010000001C
:1077A400000109023E0002010080320904000001C8
:1077B4000202010005240010010424020405240629
:1077C4000001070582030800FF09040100020A0002
:1077D40000000705040210000107058302100001E0
:1078000011241FBE04B714BE88E18093600010925B
:1078100060008EEF9AE09EBF8DBF222433242101A9
:107820004394310141018AC00F928F939F931F921D
:107830000FB60F9211244F936F938091DA0080FF5F
:1078400037C023C00F920FB68F939F93EF93FF9390
:1078500088278093850080938400E0E5F1E09281A1
:10786000907261F490818917980B908309F45D9A66
:1078700091818917980B918309F4289A239411F424
:107880008315381EFF91EF9154C08091D80080FF7E
:107890000FC08091DA008E7F8093DA008091D9004A
:1078A00080FF04C0ADDD81E08EBB02C019BC1EBAF2
:1078B0008091E10080FF0BC05AD280FF08C05AD2ED
:1078C0008091D800806202DE19BC85E08EBB809179
:1078D000E10084FF1AC04BD284FF17C091DD809174
:1078E000D8008F7DF3DD8FEEA4DD41D28F7E8160E5
:1078F00044D280915301882331F48091E30087FDC5
:1079000002C081E001C084E08EBB8091E10083FF72
:107910000CC02DD283FF09C087EF8BDD82E08EBBC8
:107920001092530185DD26D235D26F914F910F9081
:107930001F909F918F910FBE0F90189580E88093B4
:10794000610010926100B1E0B5BF82E085BF81EFB8
:1079500085B987EE84B91DB8769A10BA80EF81BBDD
:107960008CE28BB98FE38AB980E58CBDBDBDA0E008
:10797000E4E9F7E705900D92A035E1F78C911D92AF
:10798000BB30E1F701FF0FC08B3A69F489EBAADD48
:1079900080E880BF8DEA8093640089E98093650068
:1079A00085E083BF889500FF07C07C9B05C04DDD47
:1079B000882312F059DD61F55DDD789449DE71F0C0
:1079C000ABE9B7E0E3E6F7E790E105900D929A9511
:1079D000E1F7A059BF4FE339B9F7A3DD56D018DD61
:1079E00080915201807881F48FB18095807F669973
:1079F0001C9B8460982E06DE8BEA88258093FF0A04
:107A00008110A2DD92FC02C0332042F72DDD31F35C
:107A1000F89489EB67DD81E08093E00010926F00BD
:107A200010928100109285001092840081E085BF41
:107A300015BE2E9A589A2D9A5D9A289A0C94000099
:107A400091D107C053D102C0B6D239F08DD182FF97
:107A5000FBCF85FFF7CF8091F1000895082E83E0DA
:107A600082D185FD07C077D102C0A5D269F07CD153
:107A700080FFFBCF0092F10080915201807221F4CF
:107A80005D9884E68093500108956CD182FF34C1E3
:107A900080915201807221F4289884E680935101EC
:107AA000CFDF182F853431F422248EE7382EC7DC3F
:107AB0008DE007C1843511F4C3DFFACF8C34C1F3F4
:107AC0008035B1F3843721F484E4C8DF80E0F9C065
:107AD000813611F489E5F5C0813429F4B1DF582EDF
:107AE000AFDF482EE5CF803711F483E5EAC0833558
:107AF00039F4E0E5F7E78591B1DFE735E1F7E2C07A
:107B0000863521F481E3AADF86E3DBC0863761F4A2
:107B100081E3669B8E5F1C9B8F5FA0DF8FB180959A
:107B200082958F708F5BCDC08837A9F489DF8093F1
:107B30005201289A84FD28985D9A83FD5D982E9ABB
:107B400081FD2E98589A82FD58982D9A80FD2D9887
:107B500087FD8824ADCF8A3649F48FE9CCDCC3E0B9
:107B6000D6DC7CDFCA95E1F7CFDCACC0833731F4DB
:107B700087E874DF85E972DF8EE1A3C0853639F4CA
:107B8000E0E8F3E72ED2E058F040E0F791CF8236FC
:107B900031F489E563DF80E061DF80E892C0823400
:107BA00019F0873609F079C033244ADFD82F48DF2F
:107BB000C82F46DF082F8354843008F081C0063474
:107BC00011F4440C551CF20110926F001736A1F409
:107BD000033471F483E089DC9ADC40DF2197E1F71C
:107BE00093DC08C0063411F4859101C02EDC36DF29
:107BF0002197C2F72F0149C00334A1F48E2F8823A7
:107C000021F46FDC88ED71DC79DC6BDC82E06DDC0B
:107C100017DF7DDCCA95E1F771DC3196DA9571F7F3
:107C20002F0131C00634F1F49F01F437D8F4D9D1D3
:107C300019C006DF063461F4C0FB46F0F43728F4BF
:107C4000182E81E087BFE89511243296082E0AC0CD
:107C5000043439F4DF01B370AD59B94F8D933196C7
:107C600001C0F7DB21972AF7043431F42F01F370B8
:107C7000FE2B49F456DC07C0063429F42F01F90124
:107C8000F43708F4ACD18DE0E9DE063411F45694F3
:107C9000479482E080936F0015C08237E1E049F09D
:107CA0008634E0E031F08E34E3E019F0813531F4D0
:107CB000E2E0F0E089E087BF849103C08B3111F0EE
:107CC0008FE3CCDE83E0B1DB46D095FF03C009C073
:107CD00072D191F049D080FFFBCF3DD002C06BD173
:107CE00059F042D080FFFBCF84E09FDB8BE734C0AC
:107CF00060D1E4E5F1E067E0089590915B01809147
:107D00005C01913231F0913A61F5813251F5F0DF49
:107D100072C0803231F5ECDF4ED1E9F08530D9F018
:107D200023D083FD18C082FFF7CF04C094DE819377
:107D3000615031F09091F3008091F200892BB1F7FE
:107D4000D5DF611549F704C036D129F0853019F027
:107D50000BD080FFF9CF8EE79091E80089238093C4
:107D6000E800089584E061DB8091E8000895809147
:107D7000E2000895FCDF8E7F80618093E200089529
:107D800082E061EC09D083E061E802D084E060E841
:107D900042E103C080E060E042E047DB81E007D0E1
:107DA0001092ED006093EC004093ED0008959091E7
:107DB000EB00892B8093EB00089560E0923029F06E
:107DC000913031F4E0E062E103C0E2E16EE300C033
:107DD000F1E0089580915B0188234CF402C0EBD060
:107DE000C1F3C2DF82FFFBCF81CFE5D091F3BCDFCF
:107DF00080FFFBCFB0CF40916101509162014617E7
:107E0000510510F490E028C0611511F0462FFACF0B
:107E1000A2DF40E0F7CFCFD059F1853049F1A4DFA0
:107E200083FD64CFA1DF82FD20C080FF15C03091AB
:107E3000F3002091F20005C081918093F100415040
:107E40002F5F411519F028303105B0F350E028308C
:107E5000310509F451E07FDF4115E9F65523D9F6E4
:107E600004C0A9D029F0853019F07EDF82FFF9CF58
:107E70003DCFEBE5F1E0EFDD8193E336E1F73DDF68
:107E800073DF83FF91C080915B0190915C01913021
:107E900009F170F09330F1F0953009F444C0963058
:107EA00009F456C0983009F460C0993059F767C09A
:107EB000823841F780915F01B7DA2091EB00109290
:107EC000E90077D02295269521702093F100109239
:107ED000F10052C0882311F08230A1F68F718230F8
:107EE00089F680915D018823D1F420915F0127708C
:107EF00049F22093E9008091EB0080FF10C093309D
:107F000011F480E20BC080E152DF81E0880F2A95F6
:107F1000E9F78093EA001092EA0088E048DF1092C7
:107F2000E90047D02AC0882391F410915D011068C0
:107F30000FB7F8943ED04EDF17DF80FFFDCF1093D0
:107F4000E300103883E009F482E08EBB0FBF2CC041
:107F50008058823048F580915D0190915E012DDF5F
:107F6000603011F126D047DF1FC08038E9F421D0FE
:107F7000809153018093F100EEDE2CDF15C0882341
:107F800099F490915D01923078F49093530111D05F
:107F900021DF80915301882321F48091E30091E057
:107FA00087FD94E09EBBECDEDFDE83FF089580E278
:107FB000FEDE87EFD1CE8EB388230895A3E6B1E02D
:107FC000F437B8F40ED090E40D901D9081E087BF97
:107FD000E89532969A95C1F71124E058F04085E073
:107FE00001C083E001D081E187BFE89507B600FCBE
:047FF000FDCF089524
:047FFC00E1CFFBDCFA
:040000030000740085
:00000001FF
